{
  "_format": "hh-sol-artifact-1",
  "contractName": "BlacklistHook",
  "sourceName": "contracts/BlacklistHook.sol",
  "abi": [
    {
      "inputs": [],
      "stateMutability": "nonpayable",
      "type": "constructor"
    },
    {
      "inputs": [
        {
          "internalType": "address",
          "name": "account",
          "type": "address"
        }
      ],
      "name": "AddressBlackListed",
      "type": "error"
    },
    {
      "anonymous": false,
      "inputs": [
        {
          "indexed": true,
          "internalType": "address",
          "name": "safeAccount",
          "type": "address"
        },
        {
          "indexed": true,
          "internalType": "address",
          "name": "account",
          "type": "address"
        }
      ],
      "name": "AddressBlacklisted",
      "type": "event"
    },
    {
      "anonymous": false,
      "inputs": [
        {
          "indexed": true,
          "internalType": "address",
          "name": "safeAccount",
          "type": "address"
        },
        {
          "indexed": true,
          "internalType": "address",
          "name": "account",
          "type": "address"
        }
      ],
      "name": "AddressRemovedFromBlacklist",
      "type": "event"
    },
    {
      "inputs": [
        {
          "internalType": "address[]",
          "name": "accounts",
          "type": "address[]"
        }
      ],
      "name": "addToBlacklist",
      "outputs": [],
      "stateMutability": "nonpayable",
      "type": "function"
    },
    {
      "inputs": [
        {
          "internalType": "address",
          "name": "",
          "type": "address"
        },
        {
          "internalType": "address",
          "name": "",
          "type": "address"
        }
      ],
      "name": "blacklistedAddresses",
      "outputs": [
        {
          "internalType": "bool",
          "name": "",
          "type": "bool"
        }
      ],
      "stateMutability": "view",
      "type": "function"
    },
    {
      "inputs": [],
      "name": "metadataHash",
      "outputs": [
        {
          "internalType": "bytes32",
          "name": "",
          "type": "bytes32"
        }
      ],
      "stateMutability": "view",
      "type": "function"
    },
    {
      "inputs": [],
      "name": "metadataProvider",
      "outputs": [
        {
          "internalType": "uint256",
          "name": "providerType",
          "type": "uint256"
        },
        {
          "internalType": "bytes",
          "name": "location",
          "type": "bytes"
        }
      ],
      "stateMutability": "view",
      "type": "function"
    },
    {
      "inputs": [],
      "name": "name",
      "outputs": [
        {
          "internalType": "string",
          "name": "",
          "type": "string"
        }
      ],
      "stateMutability": "view",
      "type": "function"
    },
    {
      "inputs": [
        {
          "internalType": "contract ISafe",
          "name": "account",
          "type": "address"
        },
        {
          "internalType": "bool",
          "name": "success",
          "type": "bool"
        },
        {
          "internalType": "bytes",
          "name": "preCheckData",
          "type": "bytes"
        }
      ],
      "name": "postCheck",
      "outputs": [],
      "stateMutability": "nonpayable",
      "type": "function"
    },
    {
      "inputs": [
        {
          "internalType": "contract ISafe",
          "name": "account",
          "type": "address"
        },
        {
          "components": [
            {
              "components": [
                {
                  "internalType": "address payable",
                  "name": "to",
                  "type": "address"
                },
                {
                  "internalType": "uint256",
                  "name": "value",
                  "type": "uint256"
                },
                {
                  "internalType": "bytes",
                  "name": "data",
                  "type": "bytes"
                }
              ],
              "internalType": "struct SafeProtocolAction[]",
              "name": "actions",
              "type": "tuple[]"
            },
            {
              "internalType": "uint256",
              "name": "nonce",
              "type": "uint256"
            },
            {
              "internalType": "bytes32",
              "name": "metadataHash",
              "type": "bytes32"
            }
          ],
          "internalType": "struct SafeTransaction",
          "name": "tx",
          "type": "tuple"
        },
        {
          "internalType": "uint256",
          "name": "executionType",
          "type": "uint256"
        },
        {
          "internalType": "bytes",
          "name": "executionMeta",
          "type": "bytes"
        }
      ],
      "name": "preCheck",
      "outputs": [
        {
          "internalType": "bytes",
          "name": "preCheckData",
          "type": "bytes"
        }
      ],
      "stateMutability": "view",
      "type": "function"
    },
    {
      "inputs": [
        {
          "internalType": "contract ISafe",
          "name": "account",
          "type": "address"
        },
        {
          "components": [
            {
              "components": [
                {
                  "internalType": "address payable",
                  "name": "to",
                  "type": "address"
                },
                {
                  "internalType": "uint256",
                  "name": "value",
                  "type": "uint256"
                },
                {
                  "internalType": "bytes",
                  "name": "data",
                  "type": "bytes"
                }
              ],
              "internalType": "struct SafeProtocolAction",
              "name": "action",
              "type": "tuple"
            },
            {
              "internalType": "uint256",
              "name": "nonce",
              "type": "uint256"
            },
            {
              "internalType": "bytes32",
              "name": "metadataHash",
              "type": "bytes32"
            }
          ],
          "internalType": "struct SafeRootAccess",
          "name": "rootAccess",
          "type": "tuple"
        },
        {
          "internalType": "uint256",
          "name": "executionType",
          "type": "uint256"
        },
        {
          "internalType": "bytes",
          "name": "executionMeta",
          "type": "bytes"
        }
      ],
      "name": "preCheckRootAccess",
      "outputs": [
        {
          "internalType": "bytes",
          "name": "preCheckData",
          "type": "bytes"
        }
      ],
      "stateMutability": "nonpayable",
      "type": "function"
    },
    {
      "inputs": [
        {
          "internalType": "address[]",
          "name": "accounts",
          "type": "address[]"
        }
      ],
      "name": "removeFromBlacklist",
      "outputs": [],
      "stateMutability": "nonpayable",
      "type": "function"
    },
    {
      "inputs": [],
      "name": "requiresPermissions",
      "outputs": [
        {
          "internalType": "uint8",
          "name": "permissions",
          "type": "uint8"
        }
      ],
      "stateMutability": "view",
      "type": "function"
    },
    {
      "inputs": [],
      "name": "requiresRootAccess",
      "outputs": [
        {
          "internalType": "bool",
          "name": "",
          "type": "bool"
        }
      ],
      "stateMutability": "view",
      "type": "function"
    },
    {
      "inputs": [
        {
          "internalType": "bytes32",
          "name": "_metadataHash",
          "type": "bytes32"
        }
      ],
      "name": "retrieveMetadata",
      "outputs": [
        {
          "internalType": "bytes",
          "name": "metadata",
          "type": "bytes"
        }
      ],
      "stateMutability": "view",
      "type": "function"
    },
    {
      "inputs": [
        {
          "internalType": "bytes4",
          "name": "interfaceId",
          "type": "bytes4"
        }
      ],
      "name": "supportsInterface",
      "outputs": [
        {
          "internalType": "bool",
          "name": "",
          "type": "bool"
        }
      ],
      "stateMutability": "view",
      "type": "function"
    },
    {
      "inputs": [],
      "name": "version",
      "outputs": [
        {
          "internalType": "string",
          "name": "",
          "type": "string"
        }
      ],
      "stateMutability": "view",
      "type": "function"
    }
  ],
  "bytecode": "0x60c0346200049f5760c08101906001600160401b038083118284101762000489576040928084526200003181620004a4565b600e81526d426c61636b6c69737420486f6f6b60901b60e084015282528251916200005c83620004a4565b600592838152602093640312e302e360dc1b85830152848301918252858301926000908185528751606081018181108882111762000475578952602d81527f68747470733a2f2f6b696b757365726e616d65732e636f6d2f7374617469632f888201526c6b696b2d626c6f636b2e706e6760981b8982015260608201528751878101818110888211176200047557895282815260808201526001948560a08301528151948551888111620003b65780620001178654620004e4565b97601f988c8a82116200043b575b50508b90898311600114620003d6578792620003ca575b5050600019600383901b1c191690881b1784555b51805190888211620003b657620001688854620004e4565b8a8882116200037c575b505089908783116001146200030e57620001c69493929186918362000302575b5050600019600383901b1c191690881b1787555b511515608052620001b78162000586565b88815191012060a05262000586565b918251958611620002ee57620001de600254620004e4565b848111620002b2575b505085928511600114620002495793945084929190836200023d575b50501b916000199060031b1c1916176002555b51610aaa9081620006658239608051816101eb015260a0518181816101b001526102290152f35b01519250388062000203565b6002815285812093958591601f198316915b888383106200029757505050106200027d575b505050811b0160025562000216565b015160001960f88460031b161c191690553880806200026e565b8587015188559096019594850194879350908101906200025b565b620002dc91600284528884209086808a01821c8301938b8b10620002e4575b01901c019062000521565b3880620001e7565b93508293620002d1565b634e487b7160e01b82526041600452602482fd5b01519050388062000192565b9392918891601f198216908388528c8820918d89905b828210620003645750509683620001c698106200034a575b505050811b018755620001a6565b015160001960f88460031b161c191690553880806200033c565b838a015185558d969094019392830192018e62000324565b620003a4918a885289828920918187018b1c8301938710620003ac575b01891c019062000521565b388a62000172565b9250819262000399565b634e487b7160e01b85526041600452602485fd5b0151905038806200013c565b8780528c88208b94509190601f198416898f5b82821062000423575050841162000409575b505050811b01845562000150565b015160001960f88460031b161c19169055388080620003fb565b8385015186558e979095019493840193018f620003e9565b62000463918980528b828b20918187018d1c83019387106200046b575b018b1c019062000521565b388c62000125565b9250819262000458565b634e487b7160e01b84526041600452602484fd5b634e487b7160e01b600052604160045260246000fd5b600080fd5b604081019081106001600160401b038211176200048957604052565b601f909101601f19168101906001600160401b038211908210176200048957604052565b90600182811c9216801562000516575b60208310146200050057565b634e487b7160e01b600052602260045260246000fd5b91607f1691620004f4565b8181106200052d575050565b6000815560010162000521565b60005b8381106200054e5750506000910152565b81810151838201526020016200053d565b906020916200057a815180928185528580860191016200053a565b601f01601f1916010190565b620006616022620006509280516200062f602083015160408401511515936060810151906200061c60a060808301519201511515916200060b604051988995620005f5620005e1602089019b60c08d5260e08a01906200055f565b601f19998a8a83030160408b01526200055f565b916060880152878783030160808801526200055f565b90858583030160a08601526200055f565b9060c083015203908101845283620004c0565b6040519485926000602085015260006021850152518092858501906200053a565b8101036002810184520182620004c0565b9056fe60806040908082526004908136101561001757600080fd5b600092833560e01c91826301ffc9a7146107445750816306fdde03146106bd578163176ae7b7146105b15781632e8af01d1461055857816354fd4d50146104965781637359b7421461046c57816389daf799146103de578163935eb35f14610349578163a865b2ff14610210578163be193d27146101d3578163c5a1d7f014610198578163d3d72d2a1461012b578163e8e755b514610110575063f44d4ca3146100c057600080fd5b3461010c57606036600319011261010c576100d9610888565b506024358015150361010c57604435906001600160401b03821161010857610103913691016108b7565b505080f35b8280fd5b5080fd5b83903461010c578160031936011261010c5751908152602090f35b8391503461010c578160031936011261010c5780519130602084015260208352818301938385106001600160401b03861117610185575050828152600283526060820152603f19906101806080820182610848565b030190f35b634e487b7160e01b825260419052602490fd5b83903461010c578160031936011261010c57602090517f00000000000000000000000000000000000000000000000000000000000000008152f35b83903461010c578160031936011261010c57602090517f000000000000000000000000000000000000000000000000000000000000000015158152f35b90503461010857602091826003193601126103455780357f000000000000000000000000000000000000000000000000000000000000000003610309575080518381949060025461026081610798565b918285526001918783821691826000146102e25750506001146102a4575b5050506102a092916102919103856107d2565b51928284938452830190610848565b0390f35b9190869350600283528383205b8284106102ca57505050820101816102916102a061027e565b8054848a0186015288955087949093019281016102b1565b60ff19168782015293151560051b8601909301935084925061029191506102a0905061027e565b82606492519162461bcd60e51b8352820152601860248201527743616e6e6f74207265747269657665206d6574616461746160401b6044820152fd5b8380fd5b83903461010c5761035936610947565b91805b83518110156103da57338252600360209081528383206103d592916001600160a01b0391908261038c858a6109f4565b5116865252848420805460ff191660011790556103a982876109f4565b5116337f4a740bebda0bde2baf1735e1b1fa93babe7a2bb77ecade7bf5e222d541c076cd8580a36109cf565b61035c565b5080f35b83903461010c576103ee36610947565b91805b83518110156103da573382526003602090815283832061046792916001600160a01b03919082610421858a6109f4565b5116865252848420805460ff1916905561043b82876109f4565b5116337fc5d633221a999da7b50bad97ddd6cff0c917455d8651123a6433642833252b7c8580a36109cf565b6103f1565b8334610493575061047c366108e4565b50505050505160208152806102a060208201610809565b80fd5b83903461010c578160031936011261010c578051908260018054906104ba82610798565b8086529181811690811561053057506001146104f5575b5050506104e3826102a09403836107d2565b51918291602083526020830190610848565b80955082526020948583205b82841061051d57505050826102a0946104e392820101946104d1565b8054868501880152928601928101610501565b6102a097506104e39450602092508693915060ff191682840152151560051b820101946104d1565b83903461010c578060031936011261010c57610572610888565b6001600160a01b0360243581811692908390036105ad579360ff92849260209616825260038652828220908252855220541690519015158152f35b8480fd5b828434610493576105c1366108e4565b8101939250905061014081840312610345576105dc816108a3565b926001600160401b03828801358181116106b957826105fc918501610a1e565b5061060960c084016108a3565b5061061660e084016108a3565b506101008301359081116106b5576101208361063d60ff989694610644948c999701610a1e565b50016108a3565b506001600160a01b039081168352600360209081528484209290911683525220541661067d57505160208152806102a060208201610809565b6020606492519162461bcd60e51b835282015260136024820152721059191c995cdcc8189b1858dadb1a5cdd1959606a1b6044820152fd5b8580fd5b8680fd5b83903461010c578160031936011261010c578051908280546106de81610798565b808552906001908181169081156105305750600114610709575050506104e3826102a09403836107d2565b94508180526020948583205b82841061073157505050826102a0946104e392820101946104d1565b8054868501880152928601928101610715565b84908434610108576020366003190112610108573563ffffffff60e01b8116809103610108576020925063483f0e2b60e11b8114908115610787575b5015158152f35b6301ffc9a760e01b14905083610780565b90600182811c921680156107c8575b60208310146107b257565b634e487b7160e01b600052602260045260246000fd5b91607f16916107a7565b90601f801991011681019081106001600160401b038211176107f357604052565b634e487b7160e01b600052604160045260246000fd5b906060519182815260005b8381106108345750826000602080949584010152601f8019910116010190565b806020916080015182828501015201610814565b919082519283825260005b848110610874575050826000602080949584010152601f8019910116010190565b602081830181015184830182015201610853565b600435906001600160a01b038216820361089e57565b600080fd5b35906001600160a01b038216820361089e57565b9181601f8401121561089e578235916001600160401b03831161089e576020838186019501011161089e57565b6003199060808183011261089e576004356001600160a01b038116810361089e57926024356001600160401b039384821161089e57606090828503011261089e57600401926044359260643591821161089e57610943916004016108b7565b9091565b60208060031983011261089e576001600160401b039160043583811161089e578160238201121561089e5780600401359384116107f3578360051b9060405194610993858401876107d2565b855260248486019282010192831161089e57602401905b8282106109b8575050505090565b8380916109c4846108a3565b8152019101906109aa565b60001981146109de5760010190565b634e487b7160e01b600052601160045260246000fd5b8051821015610a085760209160051b010190565b634e487b7160e01b600052603260045260246000fd5b81601f8201121561089e578035906001600160401b0382116107f35760405192610a52601f8401601f1916602001856107d2565b8284526020838301011161089e5781600092602080930183860137830101529056fea26469706673582212203a97700e1d04d10b460893a70e11672427022f4a4e0209537efd4233130edc4264736f6c63430008130033",
  "linkReferences": {},
  "deployedLinkReferences": {}
}